:100000000C945D000C9485000C9485000C94850084
:100010000C9485000C9485000C9485000C9485004C
:100020000C9485000C9485000C9485000C9485003C
:100030000C9485000C9485000C9485000C9485002C
:100040000C946C030C9485000C94DC030C94B603A4
:100050000C9485000C9485000C9485000C9485000C
:100060000C940E040C94850000000000240027006E
:100070002A0000000000250028002B0004040404CE
:100080000404040402020202020203030303030342
:10009000010204081020408001020408102001021F
:1000A00004081020000000080002010000030407FB
:1000B00000000000000000003C0511241FBECFEF2F
:1000C000D8E0DEBFCDBF15E0A0E0B1E0E4E0FEE0A7
:1000D00002C005900D92AA32B107D9F726E0AAE234
:1000E000B5E001C01D92A737B207E1F710E0CDE5FA
:1000F000D0E004C02197FE010E94F506CC35D1075F
:10010000C9F70E9480050C9400070C940000209110
:10011000C6059091C505213208F04AC08091A2051C
:100120008111FCCF32E03093A20531E03093A1057C
:100130003FEF3093A00510929F0520939E05A5EAFE
:10014000B5E04EE755E0FA013E2F341B321718F4A4
:100150003D913193F9CF10927D0520917D05990F46
:10016000922B90937D0590917C05913061F41092D3
:100170007C0590917D059093BB009091BC0093FD10
:10018000F8CF95EC01C095EE9093BC009091A2053C
:100190009230E1F39091A0059F3F79F08091A00506
:1001A000803241F08091A005803331F084E005C0B9
:1001B00081E003C082E001C083E01092A4051092A8
:1001C000C6051092A305089590E0FC01EC55FF4F81
:1001D0003491FC01E057FF4F2491FC01E458FF4F9C
:1001E000E491EE2309F43BC0332339F1333091F02D
:1001F00038F43130A9F0323001F584B58F7D12C06A
:10020000373091F03830A1F03430B9F4809180006B
:100210008F7D03C0809180008F77809380000DC018
:1002200084B58F7784BD09C08091B0008F7703C0FB
:100230008091B0008F7D8093B000F0E0EE0FFF1F43
:10024000EE58FF4FA591B4918FB7F894EC916111DE
:1002500003C020952E2301C02E2B2C938FBF089511
:100260003FB7F8948091780590917905A0917A052F
:10027000B0917B0526B5A89B05C02F3F19F00196CC
:10028000A11DB11D3FBFBA2FA92F982F8827820F1C
:10029000911DA11DB11DBC01CD0142E0660F771F6C
:1002A000881F991F4A95D1F708958F929F92AF9218
:1002B000BF92CF92DF92EF92FF926B017C010E947E
:1002C00030014B015C01C114D104E104F104F1F0EF
:1002D0000E943001DC01CB0188199909AA09BB09E8
:1002E000883E9340A105B10570F321E0C21AD10800
:1002F000E108F10888EE880E83E0981EA11CB11C6D
:10030000C114D104E104F10419F7DDCFFF90EF909F
:10031000DF90CF90BF90AF909F908F900895CF9235
:10032000DF92EF92FF920F931F93CF93DF936C01B5
:100330007A018B01C0E0D0E0CE15DF0589F0D8014D
:100340006D918D01D601ED91FC910190F081E02D30
:10035000C6010995892B11F47E0102C02196ECCFCC
:10036000C701DF91CF911F910F91FF90EF90DF9028
:10037000CF900895FC01538D448D252F30E0842FBC
:1003800090E0821B930B541710F0CF9608950197BD
:100390000895FC01918D828D981761F0828DDF01A7
:1003A000A80FB11D5D968C91928D9F5F9F73928F68
:1003B00090E008958FEF9FEF0895FC01918D828D5D
:1003C000981731F0828DE80FF11D858D90E008952A
:1003D0008FEF9FEF0895FC01918D228D892F90E082
:1003E000805C9F4F821B91098F739927089587EC3A
:1003F00095E00E94EB0121E0892B09F420E0822F97
:100400000895FC01848DDF01A80FB11DA35ABF4FD1
:100410002C91848D90E001968F739927848FA68903
:10042000B7892C93A089B1898C9180648C93938D2A
:10043000848D981306C00288F389E02D80818F7D1A
:1004400080830895EF92FF920F931F93CF93DF93D2
:10045000EC0181E0888F9B8D8C8D981305C0E88915
:10046000F989808185FD24C0F62E0B8D10E00F5F89
:100470001F4F0F731127E02E8C8DE8120CC00FB6A2
:1004800007FCFACFE889F989808185FFF5CFCE0195
:100490000E940102F1CF8B8DFE01E80FF11DE35A9E
:1004A000FF4FF0820B8FEA89FB898081806207C051
:1004B000EE89FF896083E889F9898081806480837F
:1004C00081E090E0DF91CF911F910F91FF90EF902D
:1004D0000895CF93DF93EC01888D8823C9F0EA89D2
:1004E000FB89808185FD05C0A889B9898C9186FD2D
:1004F0000FC00FB607FCF5CF808185FFF2CFA8892A
:10050000B9898C9185FFEDCFCE010E940102E7CF22
:10051000DF91CF91089580E090E0892B29F00E942F
:10052000F70181110C9400000895089581E090E096
:100530003091720520917105321710F480E090E03F
:100540009195819591090895809172059091710519
:10055000891730F48F5F8093720580E090E00895F2
:100560008FEF9FEF08958091710590E020917205C3
:10057000821B91090895089580E090E0089585ED2B
:100580008093BC008091BC0084FDFCCF1092A2053A
:10059000089540914C05262F30E0240F311D213263
:1005A0003105DCF42091A2052430C9F4FC0180E07F
:1005B00090E0861758F430914C052191DC01A65D3E
:1005C000BA4FA30FB11D2C930196F3CF80914C0528
:1005D000680F60934C0580E0089581E0089582E003
:1005E0000895CF92DF92EF92FF920F931F93CF93D4
:1005F000DF937C01262F972F8A018091A305882302
:1006000091F0C62FD72F6E01C40ED51ECC15DD0577
:1006100071F06991D701ED91FC910190F081E02D8D
:10062000C7010995F3CF642F822F0E94C902C80128
:10063000DF91CF911F910F91FF90EF90DF90CF90BE
:100640000895CF93DF931F92CDB7DEB769832091D2
:10065000A3052223D1F02091C605203240F021E0ED
:1006600030E0FC013383228380E090E015C080916C
:10067000A405E82FF0E0EB55FA4F998190838F5F46
:100680008093A4058093C60505C061E0CE01019664
:100690000E94C90281E090E00F90DF91CF91089510
:1006A000CF93C82F8091700691E09093A30580931B
:1006B000C5051092A4051092C60560E084E696E098
:1006C0000E9421036C2F84E696E00E942103CF91C3
:1006D0000C9487000E94FB061F920F920FB60F9298
:1006E00011242F933F938F939F93AF93BF93809148
:1006F000740590917505A0917605B09177053091BC
:10070000730523E0230F2D3720F40196A11DB11DA1
:1007100005C026E8230F0296A11DB11D2093730585
:100720008093740590937505A0937605B093770533
:100730008091780590917905A0917A05B0917B051B
:100740000196A11DB11D8093780590937905A09322
:100750007A05B0937B05BF91AF919F918F913F91A7
:100760002F910F900FBE0F901F9018951F920F9210
:100770000FB60F9211242F933F934F935F936F9374
:100780007F938F939F93AF93BF93EF93FF9387ECE8
:1007900095E00E940102FF91EF91BF91AF919F916F
:1007A0008F917F916F915F914F913F912F910F901A
:1007B0000FBE0F901F9018951F920F920FB60F92B9
:1007C00011242F938F939F93EF93FF93E091D7057D
:1007D000F091D8058081E091DD05F091DE0582FD84
:1007E00012C090818091E0058F5F8F732091E105A9
:1007F000821751F0E091E005F0E0E953FA4F958F50
:100800008093E00501C08081FF91EF919F918F91CE
:100810002F910F900FBE0F901F9018951F920F925F
:100820000FB60F9211242F933F934F935F936F93C3
:100830007F938F939F93AF93BF93EF93FF93809199
:10084000B900887F803609F49CC068F5883209F4C5
:100850005BC090F4803109F454C038F4882309F463
:10086000F6C0883009F44DC0F6C0883109F44CC098
:10087000803209F45DC0EFC0803409F468C048F4E8
:10088000803309F455C0883309F0E5C08093A00592
:10089000D8C0803509F44FC0883509F45DC088346C
:1008A00009F0D9C0D6C0883909F4C7C0A8F4883780
:1008B00009F467C038F4883609F463C0803709F456
:1008C00060C0C9C0883809F4B8C0803909F45FC075
:1008D000803809F0C0C05BC0803B09F486C038F4A2
:1008E000803A09F466C0883A09F47FC0B4C0803CFD
:1008F00009F4A7C0883C09F4A4C0883B09F48AC065
:10090000AAC080917D0510C090919F0580919E05A1
:10091000981770F5E0919F0581E08E0F80939F05F9
:10092000F0E0E258FA4F80818093BB0085EC86C0EE
:100930008093A0058EC0E0919F0581E08E0F80938B
:100940009F058091BB00F0E0E258FA4F80839091C0
:100950009F0580919E056EC0E0919F0581E08E0FFE
:1009600080939F058091BB00F0E0E258FA4F8083AE
:100970008091A10581116DC081E080937C0584EA9E
:1009800061C083E08093A20510927005CFCF809163
:100990007005803208F051C0E091700581E08E0F43
:1009A000809370058091BB00F0E0E05BFA4F80839C
:1009B000BDCF85EC8093BC001092A205809170059C
:1009C000803230F4E0917005F0E0E05BFA4F108285
:1009D0006091700570E0E0914E05F0914F0580E563
:1009E00095E009951092700536C084E08093A205C9
:1009F00010924D0510924C05E0914A05F0914B057F
:100A0000099580914C05811105C081E080934C05CA
:100A100010922A05E0914D0581E08E0F80934D05DF
:100A2000F0E0E65DFA4F80818093BB0090914D0528
:100A300080914C05981708F479CF85E88093BC0025
:100A40000AC085EC8093BC001092A20504C01092ED
:100A5000A0050E94BF02FF91EF91BF91AF919F91BE
:100A60008F917F916F915F914F913F912F910F9057
:100A70000FBE0F901F901895E7ECF5E013821282DD
:100A800088EE93E0A0E0B0E084839583A683B783EB
:100A900024E035E03183208325EC30E0358724875E
:100AA00024EC30E03787268720EC30E0318B208B38
:100AB00021EC30E0338B228B22EC30E0358B248B21
:100AC00026EC30E0378B268B118E128E138E148E0F
:100AD000E4E6F6E01382128284839583A683B783CB
:100AE00086E195E091838083E0E7F6E01082118251
:100AF0008FEF828386838483838384E08583089554
:100B0000789484B5826084BD84B5816084BD85B5E8
:100B1000826085BD85B5816085BD80916E008160F4
:100B200080936E001092810080918100826080939A
:100B3000810080918100816080938100809180009C
:100B40008160809380008091B10084608093B100C7
:100B50008091B00081608093B00080917A008460C1
:100B600080937A0080917A00826080937A008091ED
:100B70007A00816080937A0080917A008068809307
:100B80007A001092C100E091D705F091D80592E06B
:100B90009083E091D305F091D4051082E091D505C2
:100BA000F091D6058FEC80831092DF05E091DB0594
:100BB000F091DC0586E08083E091D905F091DA05BB
:100BC000808180618083E091D905F091DA05808190
:100BD00088608083E091D905F091DA058081806892
:100BE0008083E091D905F091DA0580818F7D808343
:100BF000909371068CE380937006109272051092A8
:100C000071051092A4051092C6051092A20581E00C
:100C10008093A10510927C0561E082E10E94E400CE
:100C200061E083E10E94E4008091B9008E7F8093AF
:100C3000B9008091B9008D7F8093B90088E48093DA
:100C4000B80085E48093BC008091750618160CF0FE
:100C500080C0082E000C990BFC01E057FF4F249137
:100C6000FC01E458FF4F8491882399F090E0880FAD
:100C7000991FFC01E859FF4FA591B491FC01EE5872
:100C8000FF4F859194918FB7F894EC91E22BEC9300
:100C90008FBF61E0809175060E94E40061E070E022
:100CA00080E090E00E94550160E0809175060E940E
:100CB000E4006AE070E080E090E00E94550161E0AD
:100CC000809175060E94E4008EEA0E94500388EA33
:100CD0000E9450038FE30E94500383ED0E94500353
:100CE00080E00E94500380E40E94500380EA0E944A
:100CF000500381EA0E94500388EC0E9450038AED61
:100D00000E94500382E10E94500381E80E94500338
:100D10008FEC0E94500384EA0E94500386EA0E94EE
:100D2000500385ED0E94500380E80E9450038DE837
:100D30000E94500384E10E94500380E20E9450030D
:100D400080E00E9450038EE20E9450038FEA0E94CE
:100D5000500381E20E94500380E00E9450038FE71D
:100D60000E94500382E20E94500380E00E945003E0
:100D700087E00E945003C0E0D1E0FF24F39480910B
:100D80007006F092A3058093C5051092A4051092F9
:100D9000C60560E484E696E00E94210300E010E0CE
:100DA000FE01E00FF11F608184E696E00E942103BE
:100DB0000F5F1F4F0031110599F70E948700609661
:100DC00085E0C030D807D9F668E873E180E090E0AC
:100DD0000E94550144E050E064E275E087EC95E044
:100DE0000E948F010E948B02FDCFEE0FFF1F059026
:100DF000F491E02D099481E090E0F8940C940007C0
:040E0000F894FFCF94
:100E040000000000000000000000000000000000DE
:100E140000000000000000000000000000000000CE
:100E240000000000000000000000000000000000BE
:100E3400000000000000000000000000000000802E
:100E4400808000000000000000000000000000009E
:100E5400008080C0C000000000000000000000000E
:100E6400000000000000000000000000000000007E
:100E7400000000000000000000000000000000006E
:100E8400000000000000000000000000000000005E
:100E94000000000080C0E0F0F8FCF8E00000000072
:100EA40000000000000000000000000000808080BE
:100EB400808000808000000000808080808000FFAF
:100EC400FFFF000000008080808000008080000020
:100ED40080FFFF8080008080008080808000808090
:100EE4000000000000808000008C8E84000080F8E8
:100EF400F8F880000000000000000000000000007E
:100F0400F0F0F0F0F0F0F0F0F0F0F0F0E0E0C0809D
:100F140000E0FCFEFFFFFF7FFFFFFFFFFF0000007C
:100F24000000000000000000000000FEFFC70101F7
:100F3400010183FFFF00007CFEC70101010183FF63
:100F4400FFFF0038FEC78301010183C7FFFF0000D4
:100F540001FFFF010100FFFF0701010100007FFF06
:100F640080000000FFFF7F0000FFFFFF000001FF83
:100F7400FFFF01000000000000000000000000006E
:100F8400030F3F7F7FFFFFFFFFFFFFFFE7C7C78F11
:100F94008F9FBFFFFFC3C0F0FFFFFFFFFFFCFCFC00
:100FA400FCFCFCFCFCF8F8F0F0E0C00001030303D7
:100FB4000303010303000000000103030303010111
:100FC4000301000000010303030301010303000004
:100FD4000003030000000303000000000000000100
:100FE40003030303030100000001030100000003E5
:100FF40003010000000000000000000000000000E9
:1010040000000080C0E0F0F9FFFFFFFFFF3F1F0F6B
:1010140087C7F7FFFF1F1F3DFCF8F8F8F87C7DFF3A
:10102400FFFFFFFFFFFFFF7F3F0F0700303000008F
:1010340000000000000000000000000000000000AC
:1010440000000000FEFEFC000000000000000000A4
:1010540000000000000000000000000000E0C000EC
:10106400000000000000000000003030000000001C
:10107400000000000000000000000000000000006C
:1010840000C0FEFFFFFFFFFFFFFFFFFF7F7F3F1F4B
:101094000F071F7FFFFFF8F8FFFFFFFFFFFEF8E0D9
:1010A400000000010000000000000000FEFE00003F
:1010B40000FCFEFC0C06060EFCF80000F0F81C0E0A
:1010C4000606060CFFFFFF0000FEFE00000000FC09
:1010D400FEFC00183C7E66E6CE84000006FFFF0698
:1010E40006FCFEFC0C0606060000FEFE0000C0F82E
:1010F400FC4E4646464E7C7840183C76E6CECC8084
:1011040000000000000000000000000000000000DB
:101114000000000001070F1F1F3F3F3F3F1F0F0349
:101124000000000000000000000000000F0F00009D
:10113400000F0F0F000000000F0F000003070E0C3C
:1011440018180C060F0F0F0000010F0E0C180C0FCF
:10115400070100040E0C180C0F070000000F0F000D
:10116400000F0F0F0000000000000F0F0000000729
:10117400070C0C181C0C060600040E0C180C0F07A8
:10118400000000000000000000000000000000005B
:10119400000000000000000000000000000000004B
:1011A400000000000000000000000000000000003B
:1011B400000000000000000000000000000000002B
:1011C400000000000000000000000000000000001B
:1011D400000000000000000000000000000000000B
:1011E40000000000000000000000000000000000FB
:1011F40000000000000000000000000000000000EB
:101204000000000022028F01BA016902EB01C9014A
:10121400DD01000000002103F102BC029502B302CB
:0A122400A4029602446F6E650000FC
:00000001FF
