:100000000C945D000C9485000C9485000C94850084
:100010000C9485000C9485000C9485000C9485004C
:100020000C9485000C9485000C9485000C9485003C
:100030000C9485000C9485000C9485000C9485002C
:100040000C94B2030C9485000C9422040C94FC03D1
:100050000C9485000C9485000C9485000C9485000C
:100060000C9454040C948500000000002400270028
:100070002A0000000000250028002B0004040404CE
:100080000404040402020202020203030303030342
:10009000010204081020408001020408102001021F
:1000A00004081020000000080002010000030407FB
:1000B0000000000000000000820511241FBECFEFE9
:1000C000D8E0DEBFCDBF15E0A0E0B1E0E0E5FEE0A6
:1000D00002C005900D92A432B107D9F726E0A4E240
:1000E000B5E001C01D92AD36B207E1F710E0CDE5F5
:1000F000D0E004C02197FE010E941B07CC35D10738
:10010000C9F70E94C1050C9426070C9400002091A9
:10011000C0059091BF05213208F04AC080919C052E
:100120008111FCCF32E030939C0531E030939B0588
:100130003FEF30939A051092990520939805AFE907
:10014000B5E048E755E0FA013E2F341B321718F4AA
:100150003D913193F9CF1092770520917705990F52
:10016000922B9093770590917605913061F41092DF
:100170007605909177059093BB009091BC0093FD1C
:10018000F8CF95EC01C095EE9093BC0090919C0542
:100190009230E1F390919A059F3F79F080919A0512
:1001A000803241F080919A05803331F084E005C0BF
:1001B00081E003C082E001C083E010929E051092AE
:1001C000C00510929D05089590E0FC01EC55FF4F8D
:1001D0003491FC01E057FF4F2491FC01E458FF4F9C
:1001E000E491EE2309F43BC0332339F1333091F02D
:1001F00038F43130A9F0323001F584B58F7D12C06A
:10020000373091F03830A1F03430B9F4809180006B
:100210008F7D03C0809180008F77809380000DC018
:1002200084B58F7784BD09C08091B0008F7703C0FB
:100230008091B0008F7D8093B000F0E0EE0FFF1F43
:10024000EE58FF4FA591B4918FB7F894EC916111DE
:1002500003C020952E2301C02E2B2C938FBF089511
:100260003FB7F8948091720590917305A091740541
:10027000B091750526B5A89B05C02F3F19F00196D2
:10028000A11DB11D3FBFBA2FA92F982F8827820F1C
:10029000911DA11DB11DBC01CD0142E0660F771F6C
:1002A000881F991F4A95D1F708958F929F92AF9218
:1002B000BF92CF92DF92EF92FF926B017C010E947E
:1002C00030014B015C01C114D104E104F104F1F0EF
:1002D0000E943001DC01CB0188199909AA09BB09E8
:1002E000883E9340A105B10570F321E0C21AD10800
:1002F000E108F10888EE880E83E0981EA11CB11C6D
:10030000C114D104E104F10419F7DDCFFF90EF909F
:10031000DF90CF90BF90AF909F908F900895CF9235
:10032000DF92EF92FF920F931F93CF93DF936C01B5
:100330007A018B01C0E0D0E0CE15DF0589F0D8014D
:100340006D918D01D601ED91FC910190F081E02D30
:10035000C6010995892B11F47E0102C02196ECCFCC
:10036000C701DF91CF911F910F91FF90EF90DF9028
:10037000CF900895FC01538D448D252F30E0842FBC
:1003800090E0821B930B541710F0CF9608950197BD
:100390000895FC01918D828D981761F0828DDF01A7
:1003A000A80FB11D5D968C91928D9F5F9F73928F68
:1003B00090E008958FEF9FEF0895FC01918D828D5D
:1003C000981731F0828DE80FF11D858D90E008952A
:1003D0008FEF9FEF0895FC01918D228D892F90E082
:1003E000805C9F4F821B91098F739927089581EC40
:1003F00095E00E94EB0121E0892B09F420E0822F97
:100400000895FC01848DDF01A80FB11DA35ABF4FD1
:100410002C91848D90E001968F739927848FA68903
:10042000B7892C93A089B1898C9180648C93938D2A
:10043000848D981306C00288F389E02D80818F7D1A
:1004400080830895EF92FF920F931F93CF93DF93D2
:10045000EC0181E0888F9B8D8C8D981305C0E88915
:10046000F989808185FD24C0F62E0B8D10E00F5F89
:100470001F4F0F731127E02E8C8DE8120CC00FB6A2
:1004800007FCFACFE889F989808185FFF5CFCE0195
:100490000E940102F1CF8B8DFE01E80FF11DE35A9E
:1004A000FF4FF0820B8FEA89FB898081806207C051
:1004B000EE89FF896083E889F9898081806480837F
:1004C00081E090E0DF91CF911F910F91FF90EF902D
:1004D0000895CF93DF93EC01888D8823C9F0EA89D2
:1004E000FB89808185FD05C0A889B9898C9186FD2D
:1004F0000FC00FB607FCF5CF808185FFF2CFA8892A
:10050000B9898C9185FFEDCFCE010E940102E7CF22
:10051000DF91CF91089580E090E0892B29F00E942F
:10052000F70181110C9400000895089581E090E096
:1005300030916C0520916B05321710F480E090E04B
:10054000919581959109089580916C0590916B0525
:10055000891730F48F5F80936C0580E090E00895F8
:100560008FEF9FEF089580916B0590E020916C05CF
:10057000821B91090895089580E090E0089585ED2B
:100580008093BC008091BC0084FDFCCF10929C0540
:10059000089540914605262F30E0240F311D213269
:1005A0003105DCF420919C052430C9F4FC0180E085
:1005B00090E0861758F4309146052191DC01AC5D3E
:1005C000BA4FA30FB11D2C930196F3CF809146052E
:1005D000680F6093460580E0089581E0089582E009
:1005E0000895CF92DF92EF92FF920F931F93CF93D4
:1005F000DF937C01262F972F8A0180919D05882308
:1006000091F0C62FD72F6E01C40ED51ECC15DD0577
:1006100071F06991D701ED91FC910190F081E02D8D
:10062000C7010995F3CF642F822F0E94C902C80128
:10063000DF91CF911F910F91FF90EF90DF90CF90BE
:100640000895CF93DF931F92CDB7DEB769832091D2
:100650009D052223D1F02091C005203240F021E0F9
:1006600030E0FC013383228380E090E015C080916C
:100670009E05E82FF0E0E156FA4F998190838F5F55
:1006800080939E058093C00505C061E0CE01019670
:100690000E94C90281E090E00F90DF91CF91089510
:1006A000CF93C82F80916A0691E090939D05809327
:1006B000BF0510929E051092C00560E08EE596E0A1
:1006C0000E9421036C2F8EE596E00E942103CF91BA
:1006D0000C948700FF920F931F93CF93DF9381E2D7
:1006E0000E94500380E00E9450038FE70E94500355
:1006F00082E20E94500380E00E94500387E00E9443
:100700005003C0E0D1E0FF24F39480916A06F09298
:100710009D058093BF0510929E051092C00560E470
:100720008EE596E00E94210300E010E0FE01E00F5C
:10073000F11F60818EE596E00E9421030F5F1F4F3D
:100740000031110599F70E948700609685E0C0305E
:10075000D807D9F6DF91CF911F910F91FF9008959F
:100760000E9421071F920F920FB60F9211242F9310
:100770003F938F939F93AF93BF9380916E0590911A
:100780006F05A0917005B091710530916D0523E062
:10079000230F2D3720F40196A11DB11D05C026E8B9
:1007A000230F0296A11DB11D20936D0580936E0548
:1007B00090936F05A0937005B093710580917205B9
:1007C00090917305A0917405B09175050196A11DD6
:1007D000B11D8093720590937305A0937405B09337
:1007E0007505BF91AF919F918F913F912F910F9080
:1007F0000FBE0F901F9018951F920F920FB60F9279
:1008000011242F933F934F935F936F937F938F9315
:100810009F93AF93BF93EF93FF9381EC95E00E947A
:100820000102FF91EF91BF91AF919F918F917F91C5
:100830006F915F914F913F912F910F900FBE0F904D
:100840001F9018951F920F920FB60F9211242F939D
:100850008F939F93EF93FF93E091D105F091D20591
:100860008081E091D705F091D80582FD12C090817A
:100870008091DA058F5F8F732091DB05821751F02D
:10088000E091DA05F0E0EF53FA4F958F8093DA05A7
:1008900001C08081FF91EF919F918F912F910F90D7
:1008A0000FBE0F901F9018951F920F920FB60F92C8
:1008B00011242F933F934F935F936F937F938F9365
:1008C0009F93AF93BF93EF93FF938091B900887F7D
:1008D000803609F49CC068F5883209F45BC090F456
:1008E000803109F454C038F4882309F4F6C0883004
:1008F00009F44DC0F6C0883109F44CC0803209F4C7
:100900005DC0EFC0803409F468C048F4803309F456
:1009100055C0883309F0E5C080939A05D8C080356A
:1009200009F44FC0883509F45DC0883409F0D9C096
:10093000D6C0883909F4C7C0A8F4883709F467C05D
:1009400038F4883609F463C0803709F460C0C9C040
:10095000883809F4B8C0803909F45FC0803809F0DC
:10096000C0C05BC0803B09F486C038F4803A09F40B
:1009700066C0883A09F47FC0B4C0803C09F4A7C0BF
:10098000883C09F4A4C0883B09F48AC0AAC08091BD
:10099000770510C09091990580919805981770F58A
:1009A000E091990581E08E0F80939905F0E0E85879
:1009B000FA4F80818093BB0085EC86C080939A05B6
:1009C0008EC0E091990581E08E0F8093990580910A
:1009D000BB00F0E0E858FA4F808390919905809130
:1009E00098056EC0E091990581E08E0F809399057E
:1009F0008091BB00F0E0E858FA4F808380919B051E
:100A000081116DC081E08093760584EA61C083E046
:100A100080939C0510926A05CFCF80916A05803241
:100A200008F051C0E0916A0581E08E0F80936A055D
:100A30008091BB00F0E0E65BFA4F8083BDCF85EC90
:100A40008093BC0010929C0580916A05803230F43E
:100A5000E0916A05F0E0E65BFA4F108260916A056A
:100A600070E0E0914805F09149058AE495E0099528
:100A700010926A0536C084E080939C051092470569
:100A800010924605E0914405F09145050995809145
:100A90004605811105C081E080934605109224052A
:100AA000E091470581E08E0F80934705F0E0EC5D13
:100AB000FA4F80818093BB00909147058091460555
:100AC000981708F479CF85E88093BC000AC085ECBC
:100AD0008093BC0010929C0504C010929A050E945D
:100AE000BF02FF91EF91BF91AF919F918F917F9145
:100AF0006F915F914F913F912F910F900FBE0F908B
:100B00001F901895E1ECF5E01382128288EE93E0D5
:100B1000A0E0B0E084839583A683B78324E035E02A
:100B20003183208325EC30E03587248724EC30E0C6
:100B30003787268720EC30E0318B208B21EC30E0AA
:100B4000338B228B22EC30E0358B248B26EC30E08B
:100B5000378B268B118E128E138E148EEEE5F6E0F7
:100B60001382128284839583A683B78386E195E0FE
:100B700091838083EAE6F6E01082118284E082832A
:100B80000895789484B5826084BD84B5816084BD05
:100B900085B5826085BD85B5816085BD80916E001B
:100BA000816080936E00109281008091810082604C
:100BB0008093810080918100816080938100809189
:100BC00080008160809380008091B1008460809378
:100BD000B1008091B00081608093B00080917A0074
:100BE000846080937A0080917A00826080937A009A
:100BF00080917A00816080937A0080917A00806889
:100C000080937A001092C100E091D105F091D20555
:100C100092E09083E091CD05F091CE051082E091B5
:100C2000CF05F091D0058FEC80831092D905E0912B
:100C3000D505F091D60586E08083E091D305F0914B
:100C4000D405808180618083E091D305F091D40543
:100C5000808188608083E091D305F091D405808104
:100C600080688083E091D305F091D40580818F7DE9
:100C7000808390936B068CE380936A0610926C05D8
:100C800010926B0510929E051092C00510929C0563
:100C900081E080939B051092760561E082E10E94DD
:100CA000E40061E083E10E94E4008091B9008E7F5E
:100CB0008093B9008091B9008D7F8093B90088E45A
:100CC0008093B80085E48093BC0080916C06181670
:100CD0000CF080C0082E000C990BFC01E057FF4F70
:100CE0002491FC01E458FF4F8491882399F090E00F
:100CF000880F991FFC01E859FF4FA591B491FC01A1
:100D0000EE58FF4F859194918FB7F894EC91E22BB8
:100D1000EC938FBF61E080916C060E94E40061E07B
:100D200070E080E090E00E94550160E080916C06E8
:100D30000E94E4006AE070E080E090E00E945501CB
:100D400061E080916C060E94E4008EEA0E945003EC
:100D500088EA0E9450038FE30E94500383ED0E94B3
:100D6000500380E00E94500380E40E94500380EA18
:100D70000E94500381EA0E94500388EC0E945003B5
:100D80008AED0E94500382E10E94500381E80E9494
:100D900050038FEC0E94500384EA0E94500386EABD
:100DA0000E94500385ED0E94500380E80E9450038A
:100DB0008DE80E94500384E10E94500380E20E946B
:100DC000500380E00E9450038EE20E9450038FEA9D
:100DD0000E9450030E946A0368E873E180E090E09B
:100DE0000E94550180E094E0E0E0F1E0DF019C0129
:100DF0001D9221503040E1F7C1E0C09340010E94B4
:100E00006A0368EE73E080E090E00E945501109262
:100E100040010E946A0368EE73E080E090E00E9467
:100E2000550180914003C827C09340030E946A0384
:100E30000E948B02FDCFEE0FFF1F0590F491E02D75
:100E4000099481E090E0F8940C942607F894FFCF81
:100E5000FFFFFFFFFFFFFFFFFFFFFFFFFFFFFFFFA2
:100E6000FFFFFFFFFFFFFFFFFFFFFFFFFFFFFFFF92
:100E7000FFFFFFFFFFFFFFFFFFFFFFFFFFFFFFFF82
:100E8000FFFFFFFFFFFFFFFFFFFFFFFFFFFFFFFF72
:100E9000FFFFFFFFFFFFFFFFFFFFFFFFFFFFFFFF62
:100EA000FFFFFFFFFFFFFFFFFFFFFFFFFFFFFFFF52
:100EB000FFFFFFFFFFFFFFFFFFFFFFFFFFFFFFFF42
:100EC000FFFFFFFFFFFFFFFFFFFFFFFFFFFFFFFF32
:100ED000FFFFFFFFFFFFFFFFFFFFFFFFFFFFFFFF22
:100EE000FFFFFFFFFFFFFFFFFFFFFFFFFFFFFFFF12
:100EF000FFFFFFFFFFFFFFFFFFFFFFFFFFFFFFFF02
:100F0000FFFFFFFFFFFFFFFFFFFFFFFFFFFFFFFFF1
:100F1000FFFFFFFFFFFFFFFFFFFFFFFFFFFFFFFFE1
:100F2000FFFFFFFFFFFFFFFFFFFFFFFFFFFFFFFFD1
:100F3000FFFFFFFFFFFFFFFFFFFFFFFFFFFFFFFFC1
:100F4000FFFFFFFFFFFFFFFFFFFFFFFFFFFFFFFFB1
:100F5000FFFFFFFFFFFFFFFFFFFFFFFFFFFFFFFFA1
:100F6000FFFFFFFFFFDFCF8F9F1F1F1F1F0F0F0F01
:100F70000F0F0F0F0F0F0F0F0F0F0F0F0F0F0F0F81
:100F80000F1F7FFFFFFFFFFFFFFFFFFFFFFF7FFF41
:100F9000FFFFFF7FFFFFFFFFFFFFFFFFFFFFFF3FA1
:100FA0000F0F0F0F0F0F070F070707070707070799
:100FB0000707070707078787C7E7E7F7FFFFFFFF71
:100FC000FFFFFFFFFFFFFFFFFFFFFFFFFFFFFFFF31
:100FD000FFFFFFFFFFFFFFFFFFFFFFFFFFFFFFFF21
:100FE000FFFFFFFFFFFFFFFFFFFFFFFEFCF8F0C06A
:100FF00000000000000000000000000000000000F1
:10100000000000010307070707070707070700009D
:101010000000000007070707070707030301000098
:1010200000000000000000000000000000000000C0
:1010300000C0F0FCFEFFFFFFFFFFFFFFFFFFFFFF11
:10104000FFFFFFFFFFFFFFFFFFFFFFFFFFFFFFFFB0
:10105000FFFFFFFFFFFFFFFFFFFFFFFFFFFFFFFFA0
:10106000FFFFFFFFFFFFFFFFFFFFFFFFFFFFFFFF90
:10107000FF808080808080808080808080808080F1
:101080008080000000000000000000000000000060
:101090000000000000000000000000000000808050
:1010A000808080C0C0C0C0C0C0C0C0C0C0C0C0C000
:1010B000C0FFFFFFFFFFFFFFFFFFFFFFFFFFFFFF7F
:1010C000FFFFFFFFFFFFFFFFFFFFFFFFFFFFFFFF30
:1010D000FFFFFFFFFFFFFFFFFFFFFFFFFFFFFFFF20
:1010E000FFFFFFFFFFFFFFFFFFFFFFFFFFFFFFFF10
:1010F000FFFFFFFFFFFFFFFFFFFFFFFFFFFFFFFF00
:10110000FFFFFFFFFFFFFEFEFCFCF8F0E0C08000E9
:1011100000000080C0E0F0F8FCFEFEFFFFFFFFFFD4
:10112000FFFFFFFFFFFFFFFFFFFFFFFFFFFFFFFFCF
:10113000FFFFFFFFFFFFFFFFFFFFFFFFFFFFFFFFBF
:10114000FFFFFFFFFFFFFFFFFFFFFFFFFFFFFFFFAF
:10115000FFFFFFFFFFFFFFFFFFFFFFFFFFFFFFFF9F
:10116000FFFFFFFFFFFFFFFFFFFFFFFFFFFFFFFF8F
:10117000FFFFFFFFFFFFFFFFFFFFFFFFFFFFFFFF7F
:10118000FFFFFFFFFFFFFFFFFFFFFFFFFFFFFFFF6F
:10119000F8F8FEFFFFFFFFFFFFFFFFFFFFFFFFFF6E
:1011A000FFFFFFFFFFFFFFFFFFFFFFFFFFFFFFFF4F
:1011B000FFFFFFFFFFFFFFFFFFFFFFFFFFFFFFFF3F
:1011C000FFFFFFFFFFFFFFFFFFFFFFFFFFFFFFFF2F
:1011D000FFFFFFFFFFFFFFFFFFFFFFFFFFFFFFFF1F
:1011E000FFFFFFFFFFFFFFFFFFFFFFFFFFFFFFFF0F
:1011F000FFFFFFFFFFFFFFFFFFFFFFFFFFFFFFFFFF
:10120000FFFFFFFFFFFFFFFFFFFFFFFFFFFFFFFFEE
:10121000FFFFFFFFFFFFFFFFFFFFFFFFFFFFFFFFDE
:10122000FFFFFFFFFFFFFFFFFFFFFFFFFFFFFFFFCE
:10123000FFFFFFFFFFFFFFFFFFFFFFFFFFFFFFFFBE
:10124000FFFFFFFFFFFFFFFFFFFFFFFFFFFFFFFFAE
:101250000000000022028F01BA016902EB01C901FE
:10126000DD01000000002103F102BC029502B3027F
:04127000A40296023C
:00000001FF
